:020000040800F2
:1000000018770120DD0100088F170008F715000898
:100010008D17000861030008751800080000000033
:10002000000000000000000000000000931700081E
:1000300063030008000000009117000895170008EE
:10004000F7010008F7010008F7010008F7010008B0
:10005000F7010008F7010008F7010008F7010008A0
:10006000F7010008F7010008F7010008F701000890
:10007000F7010008F7010008F7010008F701000880
:10008000F7010008F7010008F7010008F701000870
:10009000F7010008F7010008F7010008F701000860
:1000A000F7010008F7010008F7010008F701000850
:1000B000F7010008F7010008F7010008F701000840
:1000C000F7010008F7010008F7010008F701000830
:1000D000F7010008F7010008F7010008F701000820
:1000E000B9040008F7010008F7010008F70100084B
:1000F000F7010008F7010008F7010008F701000800
:10010000F7010008F7010008F7010008F7010008EF
:10011000F7010008F7010008F7010008F7010008DF
:10012000F7010008F7010008F7010008F7010008CF
:10013000F7010008F7010008F7010008F7010008BF
:10014000F7010008F7010008F7010008F7010008AF
:10015000F7010008F7010008F7010008F70100089F
:10016000F7010008F7010008F7010008F70100088F
:10017000F7010008F7010008F7010008000000007F
:10018000F7010008F7010008F7010008F70100086F
:10019000F7010008F7010008F7010008F70100085F
:1001A000F7010008F7010008F7010008F70100084F
:1001B000F7010008F7010008F7010008F70100083F
:1001C000F7010008F7010008DFF80CD000F0B6F8DE
:1001D000004800479D3A00081877012006488047EC
:1001E00006480047FEE7FEE7FEE7FEE7FEE7FEE71C
:1001F000FEE7FEE7FEE7FEE721180008C901000858
:100200002DE9F05F0546002092469B46884606464B
:10021000814640241BE0284641464746224600F0DE
:100220007DF853465A46C01A914110D311461846DC
:10023000224600F064F82D1A67EB01084F4622466B
:100240000120002100F05BF817EB00094E41201E51
:10025000A4F10104DFDC484631462A464346BDE8A6
:10026000F09F40EA01039B0703D009E008C9121F71
:1002700008C0042AFAD203E011F8013B00F8013B60
:10028000521EF9D27047D2B201E000F8012B491E8C
:10029000FBD270470022F6E710B513460A46044623
:1002A0001946FFF7F0FF204610BD421C10F8011B55
:1002B0000029FBD1801A704730B504460020034660
:1002C00000E05B1C934203D2E05CCD5C401BF8D0A5
:1002D00030BD30B50B46014600202022012409E044
:1002E00021FA02F59D4205D303FA02F5491B04FAEF
:1002F00002F52844151EA2F10102F1DC30BD202ACE
:1003000004DB203A00FA02F1002070479140C2F16C
:10031000200320FA03F3194390407047202A04DB9E
:10032000203A21FA02F00021704721FA02F3D0406E
:10033000C2F120029140084319467047064C074D10
:1003400006E0E06840F0010394E8070098471034A5
:10035000AC42F6D3FFF73CFF185A0008385A0008A1
:10036000FEE7704738B50446006800F580508169A3
:1003700041F480118161206800F58050806900900F
:10038000012000F09DF82068009900F580508161FF
:1003900038BD00002DE9F041044621B14FF4006161
:1003A000C800C4E90201E0690025002862D028469F
:1003B0002368D4E9021C3A4F40261A6841EA0C012E
:1003C00001433A4041F40070104318602068076808
:1003D000012000F075F820680760206846602068FA
:1003E0004668012000F06CF820684FF641724660C4
:1003F000206885602068C56021688869104040F0E9
:100400008000886120688669012000F059F8206822
:1004100086612068C5612068C569012000F050F838
:100420002068204B2049C561206800F58050826912
:100430001A4011438161206800F5805085690120D0
:1004400000F03EF82068194900F580508561206869
:1004500000F580500160206800F58050056801209B
:1004600000F02EF8206800F580500560A069012892
:1004700003D009E04FF480609AE720680C4A00F549
:100480008050C1691143C16160690A4982880A6468
:100490000278D0F8010042EA00204864BDE8F0810B
:1004A0000F8120FF233FDEF8040020028020C102DC
:1004B00040000100008002404FF4006000F05EBC8C
:1004C00070B5044600F052FD0546601C02D0044899
:1004D0000078044400F04AFD401BA042FAD370BDEE
:1004E000200001202DE9F047054690F845000C4614
:1004F00001287DD002214FF0010985F84590002C9C
:1005000085F8441077D094E80901E7681843D4E9E6
:100510000423D5E9021648EA070840EA0800D4F89F
:100520002080084329681043626AD4E9067C184396
:100530000B68304338433B4E40EA0C00A76A40EA60
:1005400008001043334038431843086028680668A1
:100550000120FFF7B5FF2868066004F13401D4E9F3
:100560000B03276C91E8061018432B6811430843CE
:10057000D4E9116240EA0C0038433043104358601C
:10058000286846680120FFF79BFF28684FF64173F3
:1005900046602968E06C88602968206DC860B4F8FE
:1005A0005460D4E91607216E2A68384341EA064CA4
:1005B000D4E91976916940EA0C0038431940304378
:1005C00008439061286886690120FFF779FF286851
:1005D0008661D4E91B012A680843D0612868C46990
:1005E0000120FFF76DFF2868C46114E000E002E01D
:1005F0000220BDE8F0872968D5E902030A6818439C
:1006000022F4904210430860286804680120FFF734
:1006100057FF28680460002185F84490084685F853
:100620004510E6E70F8120FF2DE9F04390F84540A3
:100630000025012C0DD04FF0010980F845900226CD
:1006400044F2F45780F844605E1E4FF0004C816223
:1006500017E00220BDE8F083C5EBC51801EB451497
:1006600008EB480802EB8808C4F800C0B542C4E9AA
:10067000017804D204F12008C4F80C8000E0E160A5
:100680006D1C9D42E8D30368002403F58053D960B4
:1006900080F8449080F845402046DBE72DE9F043A0
:1006A00090F8454091460022012C09D0C1620126F4
:1006B000022480F845605D1E80F84440E70422E093
:1006C0000220BDE8F08300BFC2EBC21404EB440873
:1006D00001EB421409EB880C2760C4F808C0D0F87D
:1006E0001CC0BCF1000F05D1D4F800C04CF4400C84
:1006F000C4F800C0AA4204D204F1200CC4F80CC013
:1007000000E0E160521C9A42DED30268002302F549
:100710008052116180F8446080F845301846D0E777
:1007200010B590F84510012913D0012280F845201A
:10073000022180F844100023816A0C68002C28DB19
:100740000C68E40519D5846B641C8463012C02D009
:1007500002E0022010BD016341630C68C4F30D4444
:10076000241FC463046BA4680464C968816280F8B0
:10077000442080F84530002010BD0C68A40503D546
:100780008263C0E90C1302E0846B641C8463C96853
:10079000816280F8442080F84530012010BD0000BF
:1007A0002DE9FC474FF000060400B146009603D047
:1007B00094F8440018B107E00120BDE8FC8720460A
:1007C00084F8456000F0E4F86748016841F480412E
:1007D0000160006800F4804001906448016821F4E1
:1007E000000101600168226A11430160206800F580
:1007F0008050016841F00101016000F0B7FB4FF447
:10080000FA77054609E000BF00F0B0FB401BB84294
:1008100003D9032084F8440068E0206800F5805084
:100820000068C007F0D12068006920F01C0500F0C6
:10083000FBFC4F4A4F4902448A4202D245F0080568
:1008400016E04D494D4A0144914202D245F00C0553
:100850000EE04B4A4B4902448A4209D34A4A4B496B
:100860001044884202D245F0040501E045F010052D
:100870002068056100214FF40042204600F03AFA5A
:100880004FF00105B0BBFF20FFF71AFE606890B380
:1008900000F06CFB804641F2883701216A46204611
:1008A00000F0D8F800F062FBA0EB0800B84217D8BF
:1008B00000984007F1D5002120464FF4805200F007
:1008C00019FAB8B900F052FB80466A460121204669
:1008D00000F0C0F800F04AFBA0EB0800B8420BD9CA
:1008E00001212046FFF756FD84F84450032084F888
:1008F000456062E724E018E000988006E5D51F21F6
:100900006A46204600F0A6F8D0B90098C10603D583
:100910004FF40061E16000E0E660400701D5A660A9
:1009200019E04FF48040A06015E0D4E90210C0083F
:1009300040EA510082B22046002100F0DBF930B1DC
:1009400001212046FFF726FD84F8445034E740F6A5
:10095000FF70FFF7B5FD49462046FFF71BFD84F801
:100960004450002029E70000443802400438014088
:1009700000D3CEFEC0E1E40040F1E9FD40787D0106
:1009800000796CFC005A6202001F0AFA80F0FA0239
:10099000F0B587B0044614216846FFF77BFC284970
:1009A000206888424AD12748016841F000710160FF
:1009B000016801F000710591016841F080610160FA
:1009C000016801F080610591016841F000610160FA
:1009D000016801F000610591016841F0400101608A
:1009E000016801F040010591016841F004010160D6
:1009F000016801F004010591016841F00101016005
:100A0000006802240025694600F0010005900326D5
:100A10000B274FF4D0408DE8F1000B4800F0BAF9F5
:100A2000322069468DE8F100084800F0B3F98620CD
:100A300069468DE8F100064800F0ACF907B0F0BD5A
:100A40000080024030380240001802400008024096
:100A5000000002402DE9F047044690F8440091461A
:100A600082281DD082224FF6FF7084F844204FF474
:100A7000F863226803EA8111258A136900EAC52018
:100A800003F01C031843014321F0020040F001056C
:100A9000156100F06BFA012706464FF4803811E02B
:100AA0000220BDE8F08700BF00F060FA801B4045DF
:100AB00006D3002084F8447084F845000320F0E752
:100AC00020680569E807EFD12068406981B2C9F85C
:100AD000001084F844700020E3E7F8B5044690F86D
:100AE0004500012839D0012584F84550022084F8BA
:100AF000440020680026016841F008010160206878
:100B0000006800902846FFF7DBFC21680098086029
:100B10002068016841F004010160206800680090CD
:100B20000120FFF7CDFC2168009808602046FFF700
:100B300019FC206800F58050816941F40051816101
:100B4000206800F58050816941F00201816184F8DC
:100B50004450002084F84560F8BD0220F8BDF8B587
:100B6000044690F84500012839D0012584F8455005
:100B7000022084F84400206800F58050816921F447
:100B800000518161206800F58050816921F00201E7
:100B9000816120680026016821F00401016020685D
:100BA000006800900120FFF78BFC21680098086026
:100BB0002046FFF7D7FB2068016821F0080101609B
:100BC0002068006800900120FFF77AFC21680098F7
:100BD000086084F84450002084F84560F8BD022085
:100BE000F8BDF0B590F845200023012A13D0012666
:100BF00080F84560022280F844204FF0000561B182
:100C0000C76A3A68002A0BDA122180F8441080F88B
:100C100045500120F0BD0220F0BD80F84460F6E7A9
:100C200040F2F454A1420BD9B1FBF4F204FB121CC4
:100C3000B1FBF4F2BCF1000F00D0521C012A45D1E7
:100C40003A68C1F30C0142F040523A60C26A516006
:100C5000C16A0A6842F000420A60C16AC968C1629A
:100C600036E0D7F800C02CF0405CC7F800C033B9BC
:100C7000C76AD7F800C04CF0805CC7F800C0D0F855
:100C80002CC0571EBB42CCF8044014D1C76AC2F135
:100C9000010ED7F800C0CEEBCE1E4CF0005CC7F8BA
:100CA00000C00EEB4E0ED0F82CC001EB8E07C7F340
:100CB0000C07CCF80470C76AD7F800C04CF0004CA1
:100CC000C7F800C0C76A5B1CFF68C7629342C8D3FD
:100CD000016801F580514A69520705D504224A612D
:100CE000016801F580514D6080F8446080F84550FE
:100CF0000020F0BD2DE9F041044690F84400422860
:100D00001ED042204FF6FF7384F8440096B220684C
:100D10004FF4F867258A07EA81110269466103EA00
:100D2000C520236802F01C021043014341F0030573
:100D30001D6100F01BF9012706464FF4803811E0D1
:100D40000220BDE8F08100BF00F010F9801B404593
:100D500006D3002084F8447084F845000320F0E7AF
:100D600020680569E807EFD184F84470E9E7B0F539
:100D7000006F01D104F0DEBB70470000044910B5DC
:100D80000A68024202D00860FFF7F1FF10BD0000C0
:100D9000143C01402DE9F84FDFF89CE100224FF0B0
:100DA00001084FF0030B4FF00F0A00BF0B6808FA61
:100DB00002F42340A34271D14D68022D01D0122DBF
:100DC0000FD1D5080E69570700EB8505A9462D6A96
:100DD000FF0E0AFA07FCBE4025EA0C052E43C9F8AF
:100DE00020600F79550006680BFA05FC07F0030731
:100DF00026EA0C06AF40374307604E68012E05D047
:100E0000022E03D0112E01D0122E0ED18668CF688B
:100E100026EA0C06AF403743876046680F79A64341
:100E2000C7F30017974037434760C4688E6824EAC9
:100E30000C04AE402643C6604C68E40075D53F4CB8
:100E4000256845F480452560246822F0030695074F
:100E500004F4804400943A4C2D0F2644D6F80848F8
:100E6000DFF8E0C00AFA05F7604524EA070401D17B
:100E700000272EE0344FB84201D1012729E0334F3B
:100E8000B84201D1022724E0314FB84201D10327F3
:100E90001FE0304FB84202D104271AE045E02E4F40
:100EA000B84201D1052714E02C4FB84201D10627E2
:100EB0000FE02B4FB84201D107270AE0294FB84273
:100EC00001D1082705E0284FB84201D1092700E0E9
:100ED0000A27AF4027437546C6F808784E68DEF803
:100EE0000040F60324EA030400D51C43124E2C6094
:100EF000361D4D683468AD0324EA030400D51C4355
:100F00000D4F346008374D683C68ED0224EA030455
:100F100000D51C43084D3C600C354E682C68B60269
:100F200024EA030400D51C432C60521C102AFFF451
:100F30003DAFBDE8F88F0000003C0140443802405E
:100F4000003001400000024000040240000802405E
:100F5000000C024000100240001402400018024041
:100F6000001C02400020024000240240014880682A
:100F70007047000020000120024881680278114477
:100F80008160704720000120032010B500F06EF84A
:100F9000002000F005F800F023F8002010BD00004C
:100FA00070B50D4D04464FF47A700C4A29781268DA
:100FB000B0FBF1F0B2FBF0F000F00AFB48B9102CE6
:100FC00007D200222146501E00F030F800206C604D
:100FD00070BD012070BD0000200001202C00012008
:100FE0000A4808B5016841F080510160006800F0CE
:100FF000805000900548001D016841F48041016067
:10100000006800F48040009008BD000040380240B5
:10101000002809DB410900F01F028900012001F1CD
:10102000E0219040C1F80001704700000E4BF0B481
:101030001B680D46C3F30223C3F10706042E00D933
:101040000426191D072901D2002300E0DB1E01241C
:1010500004FA06F19C40491E2940641E9940144040
:101060002143F0BC00F02CBC0CED00E0064900F080
:10107000070210B54FF6FF040868044B204040EA11
:1010800002201843086010BD0CED00E00000FA05D6
:101090001848F8B5016841F0805101600068164CAD
:1010A00000F080500090206840F480302060FFF70E
:1010B0005DFF4FF47A76054605E000BFFFF756FF67
:1010C000401BB0420FD86068C003F7D5206840F4D9
:1010D00000302060FFF74AFF054606E0FFF746FFB5
:1010E000401BB04201D90320F8BD60688003F5D5EC
:1010F0000020F8BD40380240007000402DE9F04764
:1011000005000F4663D0444E306800F00F00B8422F
:1011100009D2306820F00F0038433060306800F0AA
:101120000F00B84253D128683C4C810712D54007C4
:1011300003D5206840F4E05020602878000703D5EC
:10114000206840F460402060A968206820F0F0002A
:10115000084320602878C0072AD0304968680839D9
:10116000012810D00968022810D0890700292EDA3A
:10117000216821F0030101432160FFF7F7FE80465B
:1011800041F288390DE009688903EFE78901EDE74D
:10119000FFF7ECFEA0EB0801494502D90320BDE8AA
:1011A000F0876868216801F00C01B1EB800FEFD186
:1011B000306800F00F00B8420BD9306820F00F0003
:1011C00038433060306800F00F00B84201D0012091
:1011D000E5E72878400705D5E968206820F4E05065
:1011E000084320602878000706D52869216821F483
:1011F000604141EAC000206000F01CF82168084A04
:10120000C1F30311515CC840064908600020FFF794
:10121000C7FE0020C3E70000003C0240083802403F
:10122000445900082C000120014800687047000064
:101230002C000120154910B51548096811F00C0261
:1012400013D01449042A0FD0082A0ED10F4C241FA2
:101250002268236802F03F025B0207D52068C0F3D2
:101260008810A0FB010106E0084610BD2168C1F30B
:101270008811A1FB00010023FEF7C2FF2168C1F322
:101280000141491C4900B0FBF1F010BD0838024093
:101290000024F40040787D012DE9F84F05004FF05F
:1012A00000076ED02878DFF81C93A9F1040AC00764
:1012B000AAF104044CD0D9F800104846C1F38101CA
:1012C000012908D00068C0F3810002280AD1DAF8A9
:1012D0000000400206D52068800339D568680028E0
:1012E000DFD035E06868B0F5803F0BD010B1B0F5C5
:1012F000A02F11D0206820F480302060206820F4D6
:10130000802002E0206840F480302060686890B15E
:10131000FFF72CFE06460AE0206840F4802020609B
:10132000F0E700BFFFF722FE801B642872D8206818
:101330008003F7D50CE0FFF719FE064605E000BF75
:10134000FFF714FE801B6428F0D820688003F7D4D0
:101350002878800742D5D9F80010484611F00C0FC4
:1013600008D00068C0F3810002280BD1DAF8000031
:10137000400207D42068800718D5E868012800D10A
:1013800014E01CE1E8680028206817D040F0010054
:101390002060FFF7EBFD064605E000BFFFF7E6FD26
:1013A000801B0228C2D820688007F7D528692168E9
:1013B00021F0F80141EAC00020600FE020F00100B8
:1013C0002060FFF7D3FD064605E000BFFFF7CEFD26
:1013D000801B02281ED820688007F7D428780007D1
:1013E00029D5784869696C3000298046016812D097
:1013F00041F001010160FFF7B9FD064605E000BFBD
:10140000FFF7B4FD801B022804D8D8F8000080073D
:10141000F6D510E089E021F001010160FFF7A6FD9B
:10142000064604E0FFF7A2FD801B02287DD8D8F80D
:1014300000008007F6D4287840076BD5DFF8848158
:1014400008F13808D8F80000C0000BD4D8F8001014
:1014500041F08051C8F80010D8F80000012700F0D2
:101460008050009058480168C90512D4016883462D
:1014700041F480710160FFF779FD064605E000BF89
:10148000FFF774FD801B64284FD8DBF80000C0050F
:10149000F6D54C4EA868683601280AD008B1052850
:1014A00011D0306820F001003060306820F0040076
:1014B00002E0306840F001003060A868A0B1FFF79A
:1014C00055FD83460CE0306840F004003060F0E7E2
:1014D000FFF74CFDA0EB0B0141F28830814266D84A
:1014E00030688007F4D50EE0FFF740FD834607E043
:1014F000FFF73CFDA0EB0B0141F28830814256D84A
:1015000030688007F4D42FB1D8F8001021F0805152
:10151000C8F80010A869C8B3D9F80010C1F3810158
:1015200002294CD00228206800E040E020F08070C2
:10153000206003D0FFF71AFD05463BE0FFF716FDDC
:10154000064604E0FFF712FD801B02282FD8206812
:101550008001F7D4D5E90962D5E907011B4B57088B
:1015600095F82C20084303EB074343EA8611084310
:1015700040EA026040F00050CAF80000206840F0E5
:1015800080702060FFF7F2FC054606E015E000BF22
:10159000FFF7ECFC401B022809D820688001F7D532
:1015A0000BE000BFFFF7E2FC401B022802D903203A
:1015B000BDE8F88F20688001F4D40020F8E701200E
:1015C000F6E7000008380240007000400000FFFF0E
:1015D000401EB0F1807F10B501D3012010BD4FF047
:1015E000E02460610F21601700F06AF90020A0611B
:1015F0000721216110BDFEE700B587B014216846C0
:10160000FEF748FE1B48016841F040010160016897
:1016100001F040010591016841F4807101600168A9
:1016200001F480710591016841F080010160016859
:1016300001F080010591016841F004010160016839
:1016400001F004010591016841F0010101600068A9
:101650000022094900F0010005904FF400608DE878
:10166000070006486946FFF795FB2820FFF7D0FCE6
:1016700007B000BD303802400000111000200240C9
:10168000FEB53D4CC021A822251D00272170052351
:101690006270FF20A7702E1DE3700B232870687006
:1016A000A870EF7031707270B770F37002F0E8F9E3
:1016B0002068E178314A90FA80FC314B90FA80FE44
:1016C00000BA0C060CF47F4C084344EA0C240EF4D8
:1016D0007F0CA5F1100144EA1C2444EA1060086064
:1016E0002868E97890FA80FC05BA00BA0C0608432D
:1016F00005F47F450CF47F0CA6F1100144EA0524A3
:1017000044EA1C2444EA106008603068F17805BAA5
:1017100006BA00BA0C060843174905F47F45091FAD
:1017200006F47F0644EA052444EA162444EA1060DD
:1017300008600097CDE901320A1F12480B460839AC
:1017400002F0F0FC0F4802F091FD0E4890F82F00D7
:1017500040070C4802D502F0C5FD01E002F08CFD07
:101760000949084802F0B6FD03B007490548BDE83D
:10177000F04002F0AFBD00001400012079270008FE
:1017800011290008E4000120BD290008FEE7704788
:1017900070477047FFF7F0BB30B593B03021684613
:1017A000FEF778FD14210CA8FEF774FD1A480168B5
:1017B00041F080510160006800F08050119017489E
:1017C000016841F440410160006800250DF1200CE2
:1017D0000224009400F4404011900822D823CDE95F
:1017E000064510218CE81C0001200B94CDE9030173
:1017F0006846FFF751FDFFF74BFCE2024FF4A051A2
:101800000F20CDE90F120CAA072182E831000CA8A5
:10181000FFF774FC13B030BD403802400070004048
:10182000104A30B51048146800210F4B44F470047E
:101830001460083305680D4A0D4C45F0010505603C
:1018400019600368051D1340074A03600C322C60C1
:101850000568E305034C25F480250560803C116094
:10186000236030BD88ED00E000380240FFFFF6FE47
:1018700010300024FEE700000FB4054B10B503A99B
:10188000044A029800F03CF810BC5DF814FB00001C
:101890006D2A00087C0001200FB4084B10B504A984
:1018A00002AA039800F02CF8044602A9002000F0D8
:1018B00003F9204610BC5DF814FB0000B91A0008BB
:1018C000090700284FEA116104DB00F1E02080F8ED
:1018D0000014704700F00F0000F1E02080F8141DA4
:1018E000704702E008C8121F08C1002AFAD17047E9
:1018F0007047002001E001C1121F002AFBD1704790
:101900002DE9FF4F8BB09A460F460546002606E0AC
:1019100025280BD052460D9990476D1C761C2878CF
:101920000028F5D10FB03046BDE8F08F0024A04666
:101930000122604900E0044315F8013F203B02FA10
:1019400003F00842F7D128782E2817D115F8010F97
:1019500044F004042A280ED06FF02F022878A0F15A
:10196000300109290AD808EB880102EB410100EB9C
:1019700001086D1CF2E757F8048B6D1C2878692864
:101980003ED006DC0028CDD063280BD0642804D1DB
:1019900036E0732810D075284BD052460D999047E9
:1019A000761C85E017F8040B8DF8000000208DF8F8
:1019B0000100E946012003E057F8049B4FF0FF3097
:1019C00061074FF0000401D40AE0641C44450DDABD
:1019D0008442FADB19F804100029F6D106E0641CF1
:1019E0008442FCDB19F804100029F8D1264404E0F5
:1019F00019F8010B52460D999047641EF8D257E032
:101A000001CF4FF00A0B002802DA40422D2102E0FC
:101A1000210504D52B218DF82410012103E0E107D5
:101A200005D02021F7E70DF1200908910CE00021F5
:101A3000F9E701CF4FF00A0BF9E75946FEF749FCE9
:101A400001F1300209F8012D0028F6D1ADEB0900B3
:101A500000F1200B600701D44FF00108D84502DDEA
:101A6000A8EB0B0000E000208046002406E009A857
:101A70005246005D0D999047641C761C089884427C
:101A8000F5DB04E0302052460D999047761CB8F102
:101A90000001A8F10108F5DC05E019F8010B524638
:101AA0000D999047761CBBF10001ABF1010BF4DC02
:101AB0006D1C34E7092801000A68531C0B60107084
:101AC0007047000010B504464068804720682246F1
:101AD000BDE81040014903F0D5BB0000C51A00085D
:101AE00070B50C460546880706D006A34FF4CE72A3
:101AF00010A118A0FFF7C0FEA86800682060A868C1
:101B0000046070BD2E2E2F4D6964646C6577617220
:101B100065732F54686972645F50617274792F4CD9
:101B20007749502F7372632F636F72652F6D656DE8
:101B3000702E63006D656D705F667265653A206D2D
:101B4000656D2070726F7065726C7920616C696769
:101B50006E656400417373657274696F6E2022252F
:101B60007322206661696C6564206174206C696E03
:101B70006520256420696E2025730A0010B58068F1
:101B80000468002C0CD02168A207016006D005A3D0
:101B90004FF4A4720FA118A0FFF76EFE204610BDEF
:101BA000002010BD2E2E2F4D6964646C6577617224
:101BB00065732F54686972645F50617274792F4C39
:101BC0007749502F7372632F636F72652F6D656D48
:101BD000702E63006D656D705F6D616C6C6F633A44
:101BE000206D656D702070726F7065726C79206108
:101BF0006C69676E65640000417373657274696F28
:101C00006E2022257322206661696C6564206174F0
:101C1000206C696E6520256420696E2025730A009A
:101C200070B50A4D0024064604EB440005EBC000E5
:101C3000017D29B18068B04202D1204600F034F91C
:101C4000641CE4B20A2CEFD370BD000028620120AE
:101C50002DE9F74F84B04FF00A0B00240646DA4610
:101C60005F46D94602940194009404EB44004F4926
:101C70000A2F039001EBC00898F8145016D0002DDD
:101C800024D0012D08D0022D06D249A340F22512FE
:101C900055A165A0FFF7F0FD66B13168D8F80400E2
:101CA000814207D160B207B0BDE8F08F002DE8D1C6
:101CB00067B20BE0012D17D0022D07D3B8F8120040
:101CC0000099884202D34FFA84FA0090641CE4B26F
:101CD0000A2CCAD3059881074FF0FF30E3D40A2FAE
:101CE00018D01ADAFCB242E03048039950F83100BB
:101CF0000028B8F8120006D002998842E6D34FFABD
:101D000084F90290E2E701998842DFD34FFA84FB1D
:101D10000190DBE70599C907C5D0BAF10A0F0FDAC0
:101D20000AF0FF04214804EB440150F8310090B15F
:101D30001FA340F26F1246A13BA0FFF79DFD0AE0F2
:101D4000BBF10A0F02DA0BF0FF0404E0B9F10A0F4D
:101D5000A9DA09F0FF040A2C06D315A340F2811278
:101D600041A131A0FFF788FD204600F09DF80A2C24
:101D700006D30FA340F285123BA12BA0FFF77CFDF9
:101D80000A4804EB440100EBC105287D30B108A3EB
:101D90004FF4C37239A124A0FFF76EFD0EB1306875
:101DA0006860002160B269827DE70000286201203E
:101DB0002E2E2F4D6964646C6577617265732F54A4
:101DC000686972645F50617274792F4C7749502F43
:101DD0007372632F636F72652F697076342F657429
:101DE000686172702E6300007374617465203D3DFC
:101DF000204554484152505F53544154455F50452B
:101E00004E44494E47207C7C207374617465203EAB
:101E10003D204554484152505F53544154455F530F
:101E20005441424C45000000417373657274696F00
:101E30006E2022257322206661696C6564206174BE
:101E4000206C696E6520256420696E2025730A0068
:101E50006172705F7461626C655B695D2E71203DBB
:101E60003D204E554C4C000069203C204152505FB3
:101E70005441424C455F53495A4500006172705FBE
:101E80007461626C655B695D2E7374617465203D7D
:101E90003D204554484152505F53544154455F459D
:101EA0004D5054590000000070B5074C00EB400540
:101EB000002654F8350018B102F0E4FD44F835600E
:101EC00004EBC500067570BD286201202DE9F043C2
:101ED0000D00074685B009D07C684FF480782088D3
:101EE000404539D12079062836D109E01CA34FF4AA
:101EF000227229A12CA0FFF7BFFC05B0BDE8F0833A
:101F00006079042828D16088082825D1D4F80E00EB
:101F100004906868A16920B1814202D1012633464C
:101F200001E000260223284604F1080204A9914694
:101F300000F094FBE08840450ED16EB102222846A5
:101F400004AB291DCDE90232CDE9001905F12903C1
:101F50004A46194600F084FA384602F093FDCCE771
:101F60002E2E2F4D6964646C6577617265732F54F2
:101F7000686972645F50617274792F4C7749502F91
:101F80007372632F636F72652F697076342F657477
:101F9000686172702E6300006E6574696620213D71
:101FA000204E554C4C000000417373657274696F8C
:101FB0006E2022257322206661696C65642061743D
:101FC000206C696E6520256420696E2025730A00E7
:101FD000FEB5040015460E4606D141A340F21B3261
:101FE0004DA151A0FFF748FC36B93DA34FF447720D
:101FF00057A14DA0FFF740FC35B939A340F21D327F
:1020000056A149A0FFF738FC2868214600F037FDAB
:1020100008B1564B3CE02868C0F303110E2922D0CA
:10202000D4E901210A400140914208D080B2A0F5D4
:102030007E41A93903D0E068A0B304F10C054C4AF5
:102040004C49107800EB400301EBC3031F7D022FC6
:102050002CD32F685B689F4228D102463146204628
:1020600000F08AF8FEBD01228DF8042000208DF8D2
:1020700005005E218DF80610687801AB00F07F0046
:102080008DF80700A8788DF80800E8788DF8090029
:102090004FF4006004F1290231460090204600F020
:1020A000BBFBFEBDFFE76FF00300FAE75FF0000047
:1020B00000EB400301EBC3031F7D022F06D32F6803
:1020C0005B689F4202D1C0B21070C6E7401C40B2AC
:1020D0000A28EDDB32462946204600F0D5F8E0E735
:1020E0002E2E2F4D6964646C6577617265732F5471
:1020F000686972645F50617274792F4C7749502F10
:102100007372632F636F72652F697076342F6574F5
:10211000686172702E6300006E6574696620213DEF
:10212000204E554C4C000000417373657274696F0A
:102130006E2022257322206661696C6564206174BB
:10214000206C696E6520256420696E2025730A0065
:102150007120213D204E554C4C0000006970616497
:10216000647220213D204E554C4C0000545900080B
:1021700070000120286201202DE9F84315468846A9
:1021800006461C4802EB450100EBC104207D0228F5
:1021900006D219A34FF43B7225A131A0FFF76CFBC7
:1021A000144A05EB4501207D02EBC1050C350228E0
:1021B00013D1608A0327B0F58E7F04D9211D3046E4
:1021C00000F006FA07E0B0F5877F06D3211D2A4606
:1021D000304600F003FA00B927754FF4006006F1AD
:1021E00029022B4641460090304600F015FBBDE821
:1021F000F8830000286201202E2E2F4D6964646C44
:102200006577617265732F54686972645F5061729B
:1022100074792F4C7749502F7372632F636F7265F7
:102220002F697076342F6574686172702E630000B8
:102230006172705F7461626C655B6172705F69642A
:10224000785D2E7374617465203E3D20455448418D
:1022500052505F53544154455F535441424C4500E2
:10226000417373657274696F6E2022257322206634
:1022700061696C6564206174206C696E65202564F9
:1022800020696E2025730A002DE9FC5F8246144602
:1022900029300190086888464FF0FF364FF0000B58
:1022A000514600F0ECFB002828D1D8F80000C0F31C
:1022B00003110E2922D0B8F1000F1FD000281DD025
:1022C000012152464046FFF7C3FC070018D43949A4
:1022D00007EB470901EBC905287D002812D001282A
:1022E00008D0022806D234A340F2C73240A14AA047
:1022F000FFF7C2FABBF1000F0AD108E06FF00F0040
:10230000BDE8FC9FC5F808A00121297500E034B99B
:102310004146504600F05CF9002C0646F0D0287D7E
:10232000DFF8908002280DD345484FF4006105F195
:102330000C0307705046019A0091214600F06CFA98
:10234000064635E0012833D14FF47B76254668896F
:102350002989884207D1286828B117A3324639A1B4
:102360002DA0FFF789FA287B01280ED029890022A9
:10237000022001F0C5FF050018D0214602F08CFABA
:1023800058B1284602F07EFB10E02D68002DDED10A
:102390002546204602F08CFD45B158F8390008B1B9
:1023A00002F070FB002648F8395001E04FF0FF368C
:1023B0003046A5E7286201202E2E2F4D6964646CFB
:1023C0006577617265732F54686972645F506172DA
:1023D00074792F4C7749502F7372632F636F726536
:1023E0002F697076342F6574686172702E630000F7
:1023F0006172705F7461626C655B695D2E7374619C
:102400007465203D3D2050454E44494E47206F7233
:1024100020535441424C4500417373657274696F97
:102420006E2022257322206661696C6564206174C8
:10243000206C696E6520256420696E2025730A0072
:10244000700001206E6F207061636B657420717580
:102450006575657320616C6C6F77656421000000A1
:102460002DE9FF4F81B0984606004FF00007DDE9E7
:102470000FA9DDF838B006D12BA34FF48B6238A139
:102480003BA0FFF7F9F900221C21022001F038FFE0
:10249000050046D068891C2806D223A340F2634277
:1024A0003DA133A0FFF7E8F96C68119801F0E6FA56
:1024B000E08096F82800062806D044491AA32CA0EC
:1024C00040F26A42FFF7D8F9D8F800100623A1605D
:1024D0004FF48071B8F80400A081DAF80020C4F845
:1024E00012200822BAF80400E082DBF80000C4F8E9
:1024F0000E00D9F80000A0610420218040F60601FA
:102500006280237160713046DDE902230091294623
:1025100000F082F9284602F0B5FA384605B0BDE869
:10252000F08F4FF0FF30F9E72E2E2F4D6964646C69
:102530006577617265732F54686972645F50617268
:1025400074792F4C7749502F7372632F636F7265C4
:102550002F697076342F6574686172702E63000085
:102560006E6574696620213D204E554C4C0000007C
:10257000417373657274696F6E2022257322206621
:1025800061696C6564206174206C696E65202564E6
:1025900020696E2025730A00636865636B20746888
:1025A000617420666972737420706275662063615D
:1025B0006E20686F6C642073747275637420657428
:1025C000686172705F68647200000000D45900088E
:1025D000014A00F003B80000545900087FB5064DC9
:1025E0000124031DCDE90214CDE900352533194638
:1025F000FFF736FF04B070BD5A59000870B5164D8C
:102600005FF0000404EB440005EBC001087DF0B16D
:102610004A8A521C92B24A82B2F5967F0AD20128A7
:1026200006D003280AD004280AD001280BD00EE0D7
:10263000052A08D32046FFF737FC08E0042000E015
:102640000220087503E08868091DFFF7C1FF641CBC
:10265000E4B20A2CD6D370BD28620120F8B5044636
:1026600090F828001F46154606280E4606D020A3DF
:1026700040F2AB122CA135A0FFF7FEF89EB33068F4
:1026800088B3214600F0FBF968BB3078C0F3031033
:102690000E2829D0224639463046FFF7D9FA0028BD
:1026A00020DB344A00EB4001022302EBC10003753A
:1026B000002384602E68C660AE880682438252F88A
:1026C000316076B142F831304FF400602B4604F1AE
:1026D000290231460090204600F09EF8304602F074
:1026E000D1F90020F8BDFFE76FF00F00FAE7000016
:1026F0002E2E2F4D6964646C6577617265732F545B
:10270000686972645F50617274792F4C7749502FF9
:102710007372632F636F72652F697076342F6574DF
:10272000686172702E6300006E657469662D3E6884
:1027300077616464725F6C656E203D3D204554484E
:102740005F4857414444525F4C454E0041737365A6
:102750007274696F6E2022257322206661696C6530
:1027600064206174206C696E6520256420696E2088
:1027700025730A002862012070B5044640890D4681
:102780000E283CD9606801788689CA0714D00129CF
:1027900005D020490622FDF78FFD48B10CE04178B5
:1027A00051B980785E2807D1607B40F0100002E0CC
:1027B000607B40F008006073082E6FF00D0103D0BD
:1027C000B6F5C16F1BD10FE095F82F00000716D5A5
:1027D00060890E2813DB204602F008FA78B92946F2
:1027E000204600F08DFA12E095F82F00000706D57C
:1027F00060890E2803DB204602F0F8F918B1204664
:1028000002F040F903E029462046FFF75FFB002075
:1028100070BD0000545900082DE9F0411F46904654
:102820000E460446069801F029F90E210546304669
:1028300002F0DCF918B16FF00100BDE8F0817068BA
:10284000858139680160B9888180D8F80020C0F896
:102850000620B8F80410418194F82800062806D014
:1028600006A340F22B1213A11FA0FFF705F8A269DF
:1028700031462046BDE8F041104700002E2E2F4D76
:102880006964646C6577617265732F5468697264FA
:102890005F50617274792F4C7749502F7372632F98
:1028A0006E657469662F65746865726E65742E63F3
:1028B000000000006E657469662D3E68776164648F
:1028C000725F6C656E206D757374206265203620B2
:1028D000666F722065746865726E65745F6F75747B
:1028E0007075742100000000417373657274696F24
:1028F0006E2022257322206661696C6564206174F4
:10290000206C696E6520256420696E2025730A009D
:1029100010B5040006D10BA340F206220EA112A0AE
:10292000FEF7AAFF1A49732061611A49A161742157
:1029300084F83000204684F8311000F06DFF00204C
:1029400010BD00002E2E2F5372632F6574686572C0
:102950006E657469662E63006E6574696620213D3C
:10296000204E554C4C000000417373657274696FC2
:102970006E2022257322206661696C656420617473
:10298000206C696E6520256420696E2025730A001D
:10299000D11F0008CD39000870B5054600F0B4FF1E
:1029A000040009D02A6929469047002804D020460F
:1029B000BDE8704002F066B870BD70472DE9FC417B
:1029C000002506460195009590F82F00400742D556
:1029D000254C606868B3002120464FF48052FEF712
:1029E00089F9FEF7C3FA4FF47A7701901E48012166
:1029F0006A46FEF72FF8FEF7B9FA0199401AB84275
:102A000017D800988006F1D517481F216A46FEF7AF
:102A100021F80098C10603D54FF40061E16000E0A1
:102A2000E560400701D5A5600DE04FF48040A0604F
:102A300009E0D4E90210C00840EA510082B20A4815
:102A40000021FEF757F908480021FDF74BFD064825
:102A5000FEF743F802E00448FEF781F83046FFF73E
:102A6000ACFFBDE8FC810000B831012038B5044658
:102A70008DF8000069460320ABBE204638BD421CDD
:102A800012D088B191F82F2092070BD54A68824264
:102A900008D089680A4000EA0103934202D1014349
:102AA000491C01D000207047012070472DE9F74FE5
:102AB00086B004460025AE1F07981427C08C143832
:102AC000C11700EB5170C0F3CF0B6068059001781F
:102AD00001F00F01052904D056A340F2E12264A1C0
:102AE0000BE0C08800F0CAFF8104C0F30C00029024
:102AF0000AD550A340F2E62267A16EA0FEF7BCFE05
:102B0000304609B0BDE8F08F208914381FFA80F8EC
:102B100080E000BFB8EBCB0F01D34FEACB0080B20F
:102B2000039000221421022001F0EAFB5FEA000A70
:102B300078D06089142806D23EA34FF4427267A170
:102B40005CA0FEF799FEDAF8040014220599FDF75F
:102B500088FBDAF80400039E04902BE06089C01B18
:102B600085B2AE4200D2354615B3022001F088FA94
:102B70005FEA000953D0606802224B462946384478
:102B8000CDE90005042001F06DFD0090F0B3204672
:102B900002F08EF959495046C9E90414009901F030
:102BA000D1FD701B0604360C06D024680027D5E73B
:102BB00024680027002ED1D1079879198FB2C08CD4
:102BC000143840450298C0F30C0001DA40F400507C
:102BD00000F054FF0499C8800398143080B200F0CC
:102BE0004DFF04990022488051460498428107987D
:102BF000089A43699847504601F044FF0399A8EBAF
:102C0000010202991FFA82F8594401E00DE009E03F
:102C100088B20290B8F100007FF47CAF71E75046B3
:102C200001F030FF4FF0FF306BE7484600F0D4FA78
:102C3000F5E700002E2E2F4D6964646C6577617294
:102C400065732F54686972645F50617274792F4C98
:102C50007749502F7372632F636F72652F69707697
:102C6000342F6970345F667261672E630000000064
:102C70006970345F66726167282920646F6573200C
:102C80006E6F7420737570706F7274204950206F6E
:102C90007074696F6E73000069705F667261672897
:102CA000293A204D4620616C726561647920736514
:102CB00074000000417373657274696F6E20222581
:102CC0007322206661696C6564206174206C696E92
:102CD0006520256420696E2025730A007468697375
:102CE000206E656564732061207062756620696E70
:102CF000206F6E652070696563652100813700086B
:102D00002DE9F05F456806460F4604212878B1EBAF
:102D1000101F03D0304601F0B5FE91E000F00F0027
:102D20004FF6FF7101EA8008688800F0A7FE0446AC
:102D30003089A04203D92146304601F0EDFF718968
:102D40004145E7D33089A042E4D3B8F1140FE1D371
:102D5000DFF8FCA02969CAF81410C1F30312E9686E
:102D60000E2ACAF8101014D0DFF8E8B03C464FF035
:102D7000010900BF94F82F00C00712D0616881B12B
:102D8000DAF81400884220D02146FFF778FEE0B937
:102D900007E097F82F00C0070FD0786868B13C466D
:102DA00013E0B9F1000F0AD09AF814007F2804D07C
:102DB000DBF800404FF0000902E0002405E0246841
:102DC000BC4200D12468002CD4D1DAF81000D146DE
:102DD0003946FFF754FE00289CD199F81000C0F343
:102DE00003100E2896D0002C94D0E88830F0C00054
:102DF00005D0304600F0E8F8060021D07568C8F12B
:102E00000001C9F808503046C9E900472A7812077E
:102E1000920EA9F80C2001F0E9FE687A112812D070
:102E2000304601F02FFE0021C9F80010C9F8041047
:102E3000C9F80810A9F80C10C9F81010C9F8141036
:102E40000020BDE8F09F3946304602F0ADFBEAE7CE
:102E500000320120580001202DE9F84FDDE90BA8D0
:102E60000546C089DDF828B01F4601281646894668
:102E700006D02DA340F2333238A13BA0FEF7FCFC74
:102E8000002E39D01421284601F0B0FE18B16FF0A1
:102E90000100BDE8F88F68896C68142806D222A367
:102EA0004FF458723AA130A0FEF7E6FC2772452095
:102EB00084F809A031682161207084F801B0288964
:102EC00000F0DCFD3E4F4FF0000A6080A4F806A041
:102ED000388800F0D3FDA080B9F1000F388800F1E8
:102EE0000100388005D0D9F80000E060A4F80AA0FD
:102EF00006E034480068F8E768686E4600690090AC
:102F0000B8F8260040B12989814205D932464146A8
:102F10002846FFF7CBFDBCE7D8F8143040463246D0
:102F200029469847B5E700002E2E2F4D6964646C42
:102F30006577617265732F54686972645F5061725E
:102F400074792F4C7749502F7372632F636F7265BA
:102F50002F697076342F6970342E6300702D3E72A5
:102F60006566203D3D203100417373657274696F61
:102F70006E2022257322206661696C65642061746D
:102F8000206C696E6520256420696E2025730A0017
:102F9000636865636B20746861742066697273741A
:102FA00020706275662063616E20686F6C642073A8
:102FB00074727563742069705F6864720000000049
:102FC00072000120D05900082DE9F05F4568834662
:102FD000287800F00F0005287DD1E88800F04EFD2C
:102FE000C004070C688800F049FD297801F00F0142
:102FF000494200EB81001FFA80F8584601F043FC7B
:103000005D4C0646208830440A2809D931462846B6
:1030100000F060FB00285ED0208830440A285AD88F
:10302000A14664684FF0000A0CE06069E9688842D4
:1030300007D1A0692969884203D1A089A98888425B
:1030400003D02468002CF0D106E02CB1E88800F011
:1030500015FDC0041BD025E0012001F011F804008B
:103060000AD13146284600F035FBB04233DB01205F
:1030700001F006F804007BD02021FDF70BF90321B5
:10308000E177D9F804102160C9F8044004E0E08930
:1030900000F0F4FCC00405D01422294604F1080015
:1030A000FDF7DFF8A87940F340156D1C08D007EB59
:1030B000080080B2B8425BD34FF6EB71884257D814
:1030C0002A465946204600F0CFF8411C50D0B9F8A6
:1030D0000020324400E04BE0A9F8002035B1A27F87
:1030E00007EB0801A18342F00102A27701283DD13C
:1030F000A08B142204F108011430A0836068456895
:1031000028462E68FDF7ADF8A08B00F0B7FC01460D
:103110006980A5F806A06FF01308A5F80AA06568F5
:1031200009E077684146304601F060FD31462846A7
:1031300001F008FB3E68002EF3D1D9F804104E468A
:103140008C4205D1002105E00868A04202D001466A
:103150000029F9D1204600F0B7F9284601F093FB89
:103160003188081A30802846BDE8F09F0020FBE730
:10317000584601F087FCF9E77400012070B5044659
:10318000134813E090F82F10CA070FD04A070DD547
:1031900043685BB182682568134005EA02069E42D7
:1031A00014D0890702D4C1688D420FD0006800286E
:1031B000E8D10848006840B190F82F10CA0704D041
:1031C000490702D54168002900D1002070BD0000E8
:1031D000580001205C00012010B5040006D106A3B0
:1031E00040F2AE2213A116A0FEF746FB2146BDE831
:1031F0001040022000F0D0BE2E2E2F4D6964646C6A
:103200006577617265732F54686972645F5061728B
:1032100074792F4C7749502F7372632F636F7265E7
:103220002F697076342F6970345F667261672E6320
:10323000000000007020213D204E554C4C00000045
:10324000417373657274696F6E2022257322206644
:1032500061696C6564206174206C696E6520256409
:1032600020696E2025730A002DE9F0474C6800257F
:1032700092460F4606464FF00108608800F0FEFBBC
:10328000217801F00F01494200EB8109E08800F04C
:10329000F5FB7C68C0040022010C01EB09002260F0
:1032A00083B2A180E380726826E05068B0F804C061
:1032B000614515D222606DB1B5F806C061457BD37A
:1032C0008088834278D82F60A088844506D04FF04C
:1032D000000803E0808883426ED8776072B12DE0E9
:1032E0006AD0C288914267D325B1EA88624501D08D
:1032F0004FF0000802680546002AD6D1002D12D0F2
:10330000E888A188884206D932A340F2AB1240A1D6
:1033100047A0FEF7B1FA2F60E888A18888420DD057
:103320004FF000080AE07068002806D029A340F298
:10333000B31249A13EA0FEF79FFA7760BAF1000FE1
:1033400002D1B07FC00732D0B8F1000F32D072681E
:10335000002A2FD05068808800282BD12068214671
:1033600028B14468C888A1888842F7D022E0B8F123
:10337000000F1FD032B917A34FF4EA7244A12CA05A
:10338000FEF77AFA70684068A04206D111A340F2B5
:10339000D5123FA126A0FEF76FFA206830B10DA329
:1033A00040F2D7123EA122A0FEF766FA0120BDE846
:1033B000F08701E00020FAE7384601F064FA0146A0
:1033C00040480288511A0180384601F05BFB4FF0FB
:1033D000FF30ECE72E2E2F4D6964646C65776172C7
:1033E00065732F54686972645F50617274792F4CF1
:1033F0007749502F7372632F636F72652F697076F0
:10340000342F6970345F667261672E6300000000BC
:10341000636865636B20667261676D656E747320A7
:10342000646F6E2774206F7665726C6170000000A7
:10343000417373657274696F6E2022257322206652
:1034400061696C6564206174206C696E6520256417
:1034500020696E2025730A006E6F20707265766990
:103460006F757320667261676D656E742C20746869
:103470006973206D757374206265207468652066B9
:103480006972737420667261676D656E74210000E5
:1034900073616E69747920636865636B0000000076
:1034A00076616C69646174655F646174616772619F
:1034B0006D3A6E6578745F70627566213D4E554C4D
:1034C0004C0000007400012070B504460C480D4605
:1034D0004168A14202D1216841600AE0002D06D175
:1034E00008A340F2451216A11CA0FEF7C5F92068FA
:1034F00028602146BDE87040012000F04DBD00006D
:10350000740001202E2E2F4D6964646C6577617202
:1035100065732F54686972645F50617274792F4CBF
:103520007749502F7372632F636F72652F697076BE
:10353000342F6970345F667261672E63000000008B
:1035400073616E69747920636865636B206C696E62
:103550006B6564206C6973740000000041737365CF
:103560007274696F6E2022257322206661696C6512
:1035700064206174206C696E6520256420696E206A
:1035800025730A002DE9F04707460E46B9424FF071
:10359000000505D1AB221EA32CA12FA0FEF76CF9CC
:1035A000002E08D03068B84205D0AD2218A334A14F
:1035B00029A0FEF761F97C684FF4803812E060685A
:1035C000A1460468484601F05EF90544454505D327
:1035D000CC220FA32FA120A0FEF74EF9ADB2484692
:1035E00001F050FA002CEAD131463846FFF76CFF63
:1035F000304C2088A84205D2D22205A32EA116A0C5
:10360000FEF73AF92088401B20802846BDE8F08765
:103610002E2E2F4D6964646C6577617265732F542B
:10362000686972645F50617274792F4C7749502FCA
:103630007372632F636F72652F697076342F6970B0
:10364000345F667261672E630000000070726576F9
:1036500020213D2069707200417373657274696F37
:103660006E2022257322206661696C656420617476
:10367000206C696E6520256420696E2025730A0020
:10368000707265762D3E6E657874203D3D206970C0
:103690007200000070627566735F66726565642013
:1036A0002B20636C656E203C3D2030786666666634
:1036B000000000007400012069705F72656173731F
:1036C0005F70627566636F756E74203E3D20636C3B
:1036D000656E00002DE9F0471D4F0024894606461F
:1036E0000022134611467868154622E0D0F814C02F
:1036F000D6F80C80C4450BD1D0F818C0D6F810808D
:10370000C44505D1B0F80CC0B6F80480C44509D052
:103710006D1C2AB190F81FC092F81F80C44501D8D3
:1037200002461946D0F800C0BCF1000F00D0034695
:1037300060460028DAD11AB11046FFF723FF04448F
:103740004C4501DA012DCBDC2046BDE8F0870000B6
:1037500074000120094870B5002544680BE0E07F43
:1037600020B1401EE0772546246804E02046246806
:103770002946FFF707FF002CF1D170BD740001202E
:1037800010B5040006D108A34FF42E7215A118A09D
:10379000FEF772F8606908B101F074F92046BDE8DF
:1037A0001040FFF719BD00002E2E2F4D6964646C88
:1037B0006577617265732F54686972645F506172D6
:1037C00074792F4C7749502F7372632F636F726532
:1037D0002F697076342F6970345F667261672E636B
:1037E0000000000070637220213D204E554C4C00BB
:1037F000417373657274696F6E202225732220668F
:1038000061696C6564206174206C696E6520256453
:1038100020696E2025730A00FEB5374D012204464B
:103820003649002000908023C5E900122882E12655
:103830008DF80400D1058DF8053001AA8DF80660D9
:103840008DF808008DF807008DF80900C5E90520FE
:10385000C5E907012846FCF7A3FF28B994F82F0013
:1038600040F0040084F82F00254A0423254922480B
:10387000FCF714FF234A04231F488032A2F580710D
:10388000FCF7D2FE062184F82810696940F2DC506A
:10389000097884F829106969497884F82A106969D7
:1038A000897884F82B106969C97884F82C106969C3
:1038B000097984F82D106969497984F82E10E0841B
:1038C00094F82F0040F00A0084F82F000A48FDF712
:1038D00004F909481D216A46FDF7BCF800981D212E
:1038E00040F00B0204480092FDF704FA02481D2143
:1038F0006A46FDF7AFF8FEBDB831012000800240F6
:10390000E8190120980101202DE9F84F0020044614
:1039100000902D48FCF704FF10B10020BDE8F88F9F
:103920002948818FD0F840900904090C31D0032236
:10393000042000F0E5FC009058B3234840F2F45B0B
:10394000009DD0F8308000276E8913E06B68A4F2E8
:10395000F4504242D81909EB0401FCF782FCD8F874
:103960000C003F1B0024AAF2F4568046D0F80890C1
:1039700007F2F45706EB040ADA45E7D86A6809EB60
:103980000401D0193246FCF76CFC2D683444002D3C
:10399000D9D10D480022016B05E00B6843F00043CC
:1039A0000B60C968521C836B9342F6D80021816377
:1039B000006800F580504269120602D580224261FB
:1039C00081600098AAE70000B83101202DE9F05F7E
:1039D00029484FF0000B0D465C46C66AD6F808A091
:1039E00035E03068002811DB6F894FF000081DE0DA
:1039F0006B68A4F2F45042420AEB040003EB0801A6
:103A0000FCF72FFCF6683068002802DA6FF0070038
:103A100024E0D6F808A0A8EB0401ABEB040001F207
:103A2000F4580024A9F2F45700F2F45B40F2F45188
:103A300007EB04098945DBD86A680AEB040002EB4E
:103A400008013A46FCF70DFC2D683C44BB44002DB0
:103A5000C7D109485946FDF7C4F80020064909684E
:103A600001F580514A69920603D520234B6100225B
:103A70004A60BDE8F09F0000B831012040BA7047AD
:103A800010B500F0ABF800F0D5FA00F0BDFB01F086
:103A900089FDBDE8104001F093BC0000FDF774FA09
:103AA000FDF77AFEFDF7A8FDFDF7EAFD01F026FD22
:103AB0000248FEF771FF01F0BFFBF9E7E4000120C7
:103AC00070B5040032D0A00706D019A34FF4D67207
:103AD00023A12CA0FDF7D0FE344D2868844202D3E8
:103AE0006868844206D312A34FF4D77230A125A090
:103AF000FDF7C2FE2868844218D36868844215D254
:103B000014F8040C083C30B909A34FF4E0722EA15C
:103B10001CA0FDF7B1FE00202071A868844200D2ED
:103B2000AC602046BDE8704001F0C8BA70BD00002E
:103B30002E2E2F4D6964646C6577617265732F5406
:103B4000686972645F50617274792F4C7749502FA5
:103B50007372632F636F72652F6D656D2E63000046
:103B60006D656D5F667265653A2073616E69747923
:103B700020636865636B20616C69676E6D656E7448
:103B800000000000417373657274696F6E20222516
:103B90007322206661696C6564206174206C696EB3
:103BA0006520256420696E2025730A0030000120FD
:103BB0006D656D5F667265653A206C6567616C2046
:103BC0006D656D6F727900006D656D5F667265651C
:103BD0003A206D656D2D3E75736564000A484FF49B
:103BE000C8630A4A20F0030030B510600024038047
:103BF00000F5C86144800125047151600D710B808E
:103C00004B80906030BD00001B320120300001204D
:103C10002DE9F047002874D0C01C4FF6FC7100EA73
:103C200001040C2C4FF4C86901D20C2401E04C456E
:103C30006CD8374EC4F5C8633268B068811A89B24F
:103C400062E055182F79002F5DD12F887F1A083F29
:103C5000A74258D32F8804F114034FF0010C7F1AA8
:103C6000083F9F4215D30B194FF0000808339FB24D
:103C7000D31983F80480B5F80080A3F80080598038
:103C80002F8085F804C01988494504D0931CCF5271
:103C900001E085F804C0854213D1716801E0008815
:103CA000104403790BB18842F9D18842B06008D042
:103CB000007930B117A340F2CF2222A128A0FDF74E
:103CC000DBFD716828190830884206D911A340F23B
:103CD000D3222DA122A0FDF7CFFDA8070FD00DA361
:103CE00040F2D52234A11EA0FDF7C6FD09A340F283
:103CF000D72200E005E03CA119A0FDF7BDFD05F1CC
:103D00000800BDE8F087515A8B429AD80020F8E7A6
:103D1000300001202E2E2F4D6964646C657761722E
:103D200065732F54686972645F50617274792F4CA7
:103D30007749502F7372632F636F72652F6D656DB6
:103D40002E6300006D656D5F6D616C6C6F633A2072
:103D5000216C667265652D3E757365640000000018
:103D6000417373657274696F6E2022257322206619
:103D700061696C6564206174206C696E65202564DE
:103D800020696E2025730A006D656D5F6D616C6C36
:103D90006F633A20616C6C6F6361746564206D655C
:103DA0006D6F7279206E6F742061626F766520721C
:103DB000616D5F656E642E006D656D5F6D616C6C2D
:103DC0006F633A20616C6C6F6361746564206D652C
:103DD0006D6F72792070726F7065726C7920616C92
:103DE00069676E65642E00006D656D5F6D616C6C5A
:103DF0006F633A2073616E69747920636865636BE1
:103E000020616C69676E6D656E7400002DE9F04786
:103E1000C91C05464FF6FC7001EA00040C2C4FF457
:103E2000C86901D20C2401E04C4528D8354F3868C8
:103E3000854202D37868854206D333A340F2F31259
:103E40003DA143A0FDF718FD386885423FD379684E
:103E50008D423CD2A5F10806BA46311A8FB230889D
:103E6000C01B08381FFA80F8444506D926A340F243
:103E7000062241A136A0FDF7FFFC444503D94FF0CF
:103E80000000BDE8F08722D032885046DAF80010F2
:103E90004FF0000302EB010C9CF80420CAB104F1BE
:103EA0001402424513D83A19D0F808C0083294B227
:103EB0000A19624501D2CAF80820137130881080AF
:103EC000578034801088484501D0891C44522846C8
:103ED000D7E73A19D0F808800832BCF8004092B20F
:103EE000E04503D101EB020CCAF808C08818037141
:103EF00004804780328000884845E8D0891C4252BF
:103F0000E5E70000300001202E2E2F4D6964646C1F
:103F10006577617265732F54686972645F5061726E
:103F200074792F4C7749502F7372632F636F7265CA
:103F30002F6D656D2E6300006D656D5F7472696D28
:103F40003A206C6567616C206D656D6F7279000059
:103F5000417373657274696F6E2022257322206627
:103F600061696C6564206174206C696E65202564EC
:103F700020696E2025730A006D656D5F7472696D2E
:103F80002063616E206F6E6C7920736872696E6B4E
:103F9000206D656D6F727900062806D307A340F285
:103FA000DB1212A118A0FDF767BC002904D0204A3B
:103FB00052F82000FDF794BD704700002E2E2F4DC3
:103FC0006964646C6577617265732F5468697264A3
:103FD0005F50617274792F4C7749502F7372632F41
:103FE000636F72652F6D656D702E63006D656D700A
:103FF0005F667265653A2074797065203C204D4596
:104000004D505F4D41580000417373657274696F84
:104010006E2022257322206661696C6564206174BC
:10402000206C696E6520256420696E2025730A0066
:10403000A859000830B5064D5FF0000455F824007B
:1040400000F008F8641CA4B2062CF7D330BD0000C1
:10405000A85900088268002111600A464168C91CFD
:1040600021F0030107E08368521C1B680B60836822
:1040700019600388194443889342F4DC70470000B8
:1040800010B5062808D308A340F2871212A11AA07F
:10409000FDF7F2FB002010BD214951F82000BDE8DA
:1040A0001040FDF76BBD00002E2E2F4D6964646C2F
:1040B0006577617265732F54686972645F506172CD
:1040C00074792F4C7749502F7372632F636F726529
:1040D0002F6D656D702E63006D656D705F6D616C29
:1040E0006C6F633A2074797065203C204D454D50CB
:1040F0005F4D415800000000417373657274696F31
:104100006E2022257322206661696C6564206174CB
:10411000206C696E6520256420696E2025730A0075
:10412000A85900082DE9F05FDDE90B67DDF828806C
:104130009946002E92468B46044605D1FB2214A3D5
:1041400020A126A0FDF798FB00206060A06003215D
:104150002C4D4B46E060524684F82F0084F8241022
:10416000C4E90708287884F83200411C29705946B0
:104170002046276100F056F82046B04710B10020D5
:10418000BDE8F09F6868206020466C60F8E700009A
:104190002E2E2F4D6964646C6577617265732F54A0
:1041A000686972645F50617274792F4C7749502F3F
:1041B0007372632F636F72652F6E657469662E6309
:1041C000000000004E6F20696E69742066756E6392
:1041D00074696F6E20676976656E00004173736560
:1041E0007274696F6E2022257322206661696C6586
:1041F00064206174206C696E6520256420696E20DE
:1042000025730A00540001207047C90709D041688E
:10421000002906D090F82F10090702D5011DFEF7DE
:10422000D7B970472DE9F0410C001E4605461746E8
:104230000FD0206868B11146284600F04FF831468B
:10424000284600F026F821462846BDE8F04100F057
:1042500025B8284600F022F83946284600F03EF8F6
:1042600031462846BDE8F04100F013B801498860A6
:10427000704700005400012090F82F10CA0707D0A3
:1042800021F0010180F82F100A0701D5FDF7C8BC05
:10429000704701B10968C1607047000038B50C0073
:1042A000054601D0206801E009480068009069686F
:1042B00088420AD0281D694601F030FA34B12068DE
:1042C000012168602846FFF7A0FF38BD0020F7E70E
:1042D000D0590008002800D0C161704701B10968B9
:1042E0008160704790F82F10CA0708D141F0010192
:1042F00080F82F104A0702D50321FFF786BF7047C9
:104300002DE9F05F052816460F461FD2DFE800F0C2
:10431000030507090900362504E0222502E00E25E1
:1043200000E000254FF0010A002E4FF0000876D083
:10433000012E75D0022EFCD0032E0CD063A34FF4B7
:10434000C6726EA174A0FDF797FABDE05FA34FF4AB
:104350008B727BA1F6E70520FFF792FE041E78D052
:1043600060192673133020F003008207C4E900802F
:1043700006D056A34FF4947278A167A0FDF77CFA9B
:10438000ED1C278125F00300C0F51470B84200D958
:104390003846626804F5187B60811044584506D998
:1043A0004AA34FF4977279A15BA0FDF765FA9420B8
:1043B000B0EB950F06D145A340F2311280A156A073
:1043C000FDF75AFA6189A146A4F80EA03DE0052048
:1043D000FFF756FE05003DD02E734FF6FF7185F8AE
:1043E0000D808F42C5F80080C9F8005006DB37A366
:1043F0004FF4A6727FA148A0FDF73EFAB8B228811B
:104400004FF41471884200D30846688105F1100109
:104410006960880709D02DA340F2511201E01DE028
:104420003FE079A13CA0FDF727FA6189606801446B
:10443000594506D925A340F2531254A136A0FDF7E1
:104440001BFA6989A946A5F80EA07F1A002FBEDCC9
:1044500033E037E0204600F015FB35E0F91C05F1AC
:10446000130020F0030021F00301084480B28142D0
:104470002AD8FFF7CDFB041E24D061192781133100
:10448000678121F003018A07C4E9008184F80C8068
:1044900013D00EA34FF4BB7267A11FA0FDF7ECF978
:1044A0000BE00420FFF7ECFD04000DD026732781FC
:1044B000C4F804806781C4F800802046A4F80EA0E8
:1044C00084F80D80BDE8F09F0020FBE72E2E2F4DD5
:1044D0006964646C6577617265732F54686972648E
:1044E0005F50617274792F4C7749502F7372632F2C
:1044F000636F72652F706275662E630070627566F9
:104500005F616C6C6F633A206572726F6E656F7578
:104510007320747970650000417373657274696FFC
:104520006E2022257322206661696C6564206174A7
:10453000206C696E6520256420696E2025730A0051
:10454000706275665F616C6C6F633A2062616420B3
:1045500070627566206C61796572000070627566C4
:104560005F616C6C6F633A207062756620702D3EDF
:104570007061796C6F61642070726F7065726C79B4
:1045800020616C69676E65640000000063686563A4
:104590006B20702D3E7061796C6F6164202B2070F0
:1045A0002D3E6C656E20646F6573206E6F74206F96
:1045B000766572666C6F7720706275660000000029
:1045C000504255465F504F4F4C5F42554653495AF3
:1045D00045206D7573742062652062696767657236
:1045E000207468616E204D454D5F414C49474E4DEA
:1045F000454E540072656D5F6C656E203C206D61A8
:10460000785F7531365F7400706275665F616C6CDF
:104610006F633A207062756620712D3E7061796C0F
:104620006F61642070726F7065726C7920616C6963
:10463000676E656400000000706275665F616C6C97
:104640006F633A20706275662D3E7061796C6F61A0
:10465000642070726F7065726C7920616C69676E2E
:104660006564000070B5DDE90445052813D2DFE874
:1046700000F0030507090900362004E0222002E0CB
:104680000E2000E00020C01C20F003004618AE42BF
:1046900009D9002070BD0CA340F2C51216A11FA0BD
:1046A000FDF7EAF8F5E700251D6014B120445860D5
:1046B00000E05D6002201981598101211A7358734D
:1046C0001846D98170BD00002E2E2F4D6964646C90
:1046D0006577617265732F54686972645F506172A7
:1046E00074792F4C7749502F7372632F636F726503
:1046F0002F706275662E6300706275665F616C6C08
:104700006F6365645F637573746F6D3A2062616493
:104710002070627566206C61796572004173736503
:104720007274696F6E2022257322206661696C6540
:1047300064206174206C696E6520256420696E2098
:1047400025730A0070B50D4608B1002D08D1BDE8EB
:10475000704014A34FF453721EA12CA0FDF78CB827
:104760000446006820B12989228911442181F7E794
:104770002089618988420FD00AA340F255322DA1C9
:1047800022A0FDF779F8206830B106A340F2563236
:1047900034A11EA0FDF770F82089298908442081E2
:1047A000256070BD2E2E2F4D6964646C6577617233
:1047B00065732F54686972645F50617274792F4C0D
:1047C0007749502F7372632F636F72652F70627514
:1047D000662E6300286820213D204E554C4C292030
:1047E000262620287420213D204E554C4C29202877
:1047F00070726F6772616D6D65722076696F6C6142
:1048000074657320415049290000000041737365AD
:104810007274696F6E2022257322206661696C654F
:1048200064206174206C696E6520256420696E20A7
:1048300025730A00702D3E746F745F6C656E203DA9
:104840003D20702D3E6C656E20286F66206C617374
:1048500074207062756620696E20636861696E29D4
:1048600000000000702D3E6E657874203D3D204EA6
:10487000554C4C0010B50C46FFF764FF2046BDE8D0
:10488000104000F015BB002102E00068491C89B20D
:104890000028FAD1084670472DE9F0474FF000078D
:1048A0000C4605003E466FF00F0904D01CB1288964
:1048B0002189884204D235A34FF46F723FA14AE0A8
:1048C0006FF0050A68896189C01B891B884201DB7A
:1048D00088B200E080B26168804668683144424630
:1048E0003844FBF7BEFC698907EB080297B206EB78
:1048F000080086B2B94206D224A340F2CD323BA1D1
:1049000040A0FCF7B9FF6089B04206D21FA340F275
:10491000CE3246A13BA0FCF7AFFF6089B04201D880
:10492000246800266889B84202D12D68002765B145
:10493000002C16D060892189884212D12068002875
:104940000FD012A340F2DD3215E0002C1BD00FA3D4
:104950004FF476723CA12BA0FCF78EFF4846BDE8D1
:10496000F08775B16889298988420AD1286840B1E1
:1049700006A340F2E23238A122A0FCF77DFF5046A8
:10498000EDE7002C9ED10020E9E700002E2E2F4DF0
:104990006964646C6577617265732F5468697264C9
:1049A0005F50617274792F4C7749502F7372632F67
:1049B000636F72652F706275662E63007062756634
:1049C0005F636F70793A20746172676574206E6FEF
:1049D000742062696720656E6F75676820746F2048
:1049E000686F6C6420736F75726365006F666673C1
:1049F00065745F746F203C3D20705F746F2D3E6C5A
:104A0000656E0000417373657274696F6E202225B4
:104A10007322206661696C6564206174206C696E24
:104A20006520256420696E2025730A006F66667311
:104A300065745F66726F6D203C3D20705F66726FBB
:104A40006D2D3E6C656E0000705F746F20213D20FF
:104A50004E554C4C00000000706275665F636F70CD
:104A600079282920646F6573206E6F7420616C6CE7
:104A70006F77207061636B65742071756575657300
:104A80002100000070B5040013D0207B00280CD05A
:104A900001280AD0022808D0032806D025A34FF405
:104AA000377230A135A0FCF7E7FE0025E08948B158
:104AB0000FE020A340F2D2223AA130A0FCF7DCFEA6
:104AC000002070BD1BA340F2EB2239A12BA0FCF704
:104AD000D3FEE089401E0004000CE0811FD1617B01
:104AE000207B266889070CD5206930B911A340F2D4
:104AF000F92235A121A0FCF7BFFE21692046884795
:104B000008E003280DD001280ED002280CD0204642
:104B1000FEF7D6FF05F101053400EDB2C6D12846F7
:104B200070BD0520214601E004202146FFF734FA3C
:104B3000F0E700002E2E2F4D6964646C657761727A
:104B400065732F54686972645F50617274792F4C79
:104B50007749502F7372632F636F72652F70627580
:104B6000662E6300706275665F667265653A2073D3
:104B7000616E652074797065000000004173736593
:104B80007274696F6E2022257322206661696C65DC
:104B900064206174206C696E6520256420696E2034
:104BA00025730A007020213D204E554C4C0000001A
:104BB000706275665F667265653A20702D3E72653B
:104BC00066203E203000000070632D3E63757374D4
:104BD0006F6D5F667265655F66756E6374696F6E33
:104BE00020213D204E554C4C00000000002200F0DA
:104BF00001B8000070B5040016460D4606D121A389
:104C000040F23F222BA12EA0FCF736FE65B15CB12D
:104C1000002D0BDA608969428AB2904207D219A34B
:104C200040F2472230A10FE0002070BDAAB2217BE4
:104C3000606869B103290BD0022911D001290FD076
:104C400010A340F2772230A11DA0FCF715FE17E05B
:104C5000411B616004F11002914208D260600FE0D4
:104C6000002D0BDA618991420AD3401B6060608994
:104C700021892844608129442181D5E7002EF4D17F
:104C8000012070BD2E2E2F4D6964646C65776172B2
:104C900065732F54686972645F50617274792F4C28
:104CA0007749502F7372632F636F72652F7062752F
:104CB000662E63007020213D204E554C4C000000B4
:104CC000417373657274696F6E20222573222066AA
:104CD00061696C6564206174206C696E652025646F
:104CE00020696E2025730A00696E6372656D656EBA
:104CF000745F6D61676E6974756465203C3D2070FA
:104D00002D3E6C656E000000626164207062756605
:104D100020747970650000002DE9F04704000D460D
:104D200006D12EA340F2F31238A13EA0FCF7A4FD59
:104D3000207B03280CD001280AD0002808D00228A4
:104D400006D026A34FF4FA7240A136A0FCF794FDDA
:104D50002089A84240D92E1A4FF6FF7740F20B283F
:104D600040F20F2914E0281A85B2BE4205DB1BA3CE
:104D700042463DA12BA0FCF77FFD208930442081D5
:104D800024682CB915A34A463CA126A0FCF774FD63
:104D90006089A842E7D3207B002815D16089A8420A
:104DA00012D0607B80070FD4A088001B284481B2FA
:104DB0002046FFF72BF8040006D108A340F21D227D
:104DC00034A118A0FCF758FD20686581258108B141
:104DD000FFF758FE00202060BDE8F0872E2E2F4DF3
:104DE0006964646C6577617265732F546869726475
:104DF0005F50617274792F4C7749502F7372632F13
:104E0000636F72652F706275662E630070627566DF
:104E10005F7265616C6C6F633A207020213D204E9B
:104E2000554C4C00417373657274696F6E20222576
:104E30007322206661696C6564206174206C696E00
:104E40006520256420696E2025730A0070627566EE
:104E50005F7265616C6C6F633A2073616E65207080
:104E60002D3E74797065000067726F77203C206D6D
:104E700061785F7531365F7400000000706275669E
:104E80005F7265616C6C6F633A207120213D204E2A
:104E9000554C4C006D656D5F7472696D2072657460
:104EA00075726E65642071203D3D204E554C4C005E
:104EB00000280CD0C189491C0904090CC18106D104
:104EC00003A340F239320EA112A0FCF7D5BC704703
:104ED0002E2E2F4D6964646C6577617265732F5453
:104EE000686972645F50617274792F4C7749502FF2
:104EF0007372632F636F72652F706275662E630025
:104F00007062756620726566206F766572666C6F7A
:104F100077000000417373657274696F6E202225FB
:104F20007322206661696C6564206174206C696E0F
:104F30006520256420696E2025730A002DE9F0475D
:104F4000002890466FF00F04894616464FF0000780
:104F50000FD0B9F1000F11D00289B24217D220A3AD
:104F600040F286422AA132A0FCF786FC2011BDE85F
:104F7000F0871BA340F2844237A103E018A340F25C
:104F800085423BA12AA0FCF777FC2046EFE70446C8
:104F900040F28E4A16E02CB911A352463BA124A040
:104FA000FCF76AFC60893546A84200D20546606875
:104FB00009EB07012A46FBF754F9701B246879199D
:104FC00086B28FB2002EE6D1474506D004A340F248
:104FD000994234A116A0FCF74FFC0020C7E700005F
:104FE0002E2E2F4D6964646C6577617265732F5442
:104FF000686972645F50617274792F4C7749502FE1
:105000007372632F636F72652F706275662E630013
:10501000706275665F74616B653A20627566206EBA
:105020006F74206C6172676520656E6F75676800CC
:10503000417373657274696F6E2022257322206636
:1050400061696C6564206174206C696E65202564FB
:1050500020696E2025730A00706275665F74616B4B
:10506000653A20696E76616C69642062756600003D
:10507000706275665F74616B653A20696E76616C0B
:105080006964206461746170747200007062756696
:105090005F74616B653A20696E76616C696420703B
:1050A00062756600646964206E6F7420636F707946
:1050B00020616C6C206461746100000070B5284D43
:1050C00004462868844206D226A340F25D1231A12C
:1050D00036A0FCF7D1FB6868844206D321A34FF4C5
:1050E000AF723CA131A0FCF7C7FB207930B11DA302
:1050F00040F25F123EA12DA0FCF7BEFB2088B0F568
:10510000C86F06D917A34FF4B17240A127A0FCF7CE
:10511000B3FB2188286801448C420ED00A7962B919
:105120006A68914209D0AA688A4200D1AC60231A09
:105130000E88821C268009888B5261880144A14216
:105140000CD00A79002A09D1AA68A24200D1A9602C
:105150000A1A2388801C0B8021880A5270BD000027
:10516000300001202E2E2F4D6964646C65776172CA
:1051700065732F54686972645F50617274792F4C43
:105180007749502F7372632F636F72652F6D656D52
:105190002E630000706C75675F686F6C65733A20F2
:1051A0006D656D203E3D2072616D00004173736539
:1051B0007274696F6E2022257322206661696C65A6
:1051C00064206174206C696E6520256420696E20FE
:1051D00025730A00706C75675F686F6C65733A20A1
:1051E0006D656D203C2072616D5F656E640000002E
:1051F000706C75675F686F6C65733A206D656D2DB7
:105200003E75736564203D3D20300000706C75670D
:105210005F686F6C65733A206D656D2D3E6E6578C5
:1052200074203C3D204D454D5F53495A455F414CEC
:1052300049474E45440000002DE9F0410F4C2068DD
:10524000002819D000F01CF86168451A216800296F
:1052500012D04868A8420FD862682D1A10446060C6
:10526000086820600320D1E90267FEF795FE002E52
:10527000ECD03846B047E9E7BDE8F0816000012096
:10528000FBF774BE2DE9F04116460F460546032094
:10529000FEF7F6FE040014D0FFF7F2FF204A116873
:1052A000002917D05368A0EB030000BF28444FF03B
:1052B0000003C4E90030C4E902760FD11460BDE8F0
:1052C000F081BDE8F04117A34FF0D40222A132A033
:1052D000FCF7D2BA50604FF00000E7E74868A842F8
:1052E00003D9401B48602160E8E7084610E0566893
:1052F0009E420CD95168C91A516004E0AB4202D9F0
:10530000496829446160016821600460D7E710465C
:1053100062684368D31A63600268002AEED0E6E749
:10532000600001202E2E2F4D6964646C65776172D8
:1053300065732F54686972645F50617274792F4C81
:105340007749502F7372632F636F72652F74696D85
:10535000656F7574732E63007379735F74696D651F
:105360006F75743A2074696D656F757420213D20E6
:105370004E554C4C2C20706F6F6C204D454D505F3E
:105380005359535F54494D454F5554206973206517
:105390006D70747900000000417373657274696FF9
:1053A0006E2022257322206661696C656420617419
:1053B000206C696E6520256420696E2025730A00C3
:1053C00070B5094D5FF00004084905EBC40255F8BB
:1053D0003400FFF757FF641C022CF5D3FFF750FF92
:1053E0000349486070BD0000C0590008C51A000894
:1053F000600001202DE9F04F01B92A4928B121B1FF
:10540000294C002563681E4608E06FF00500BDE8E2
:10541000F08FB04201D1012502E0F668002EF8D1EC
:105420006FF007097ABB4FF4404A4FF6FF764FF40E
:10543000804B4FF0000C2288571C2780B24201D1CC
:10544000A4F800A01A4627880CE000BFB2F812802A
:10545000B84506D10CF1010C1FFA8CFCDC45EAD3EF
:105460000FE0D268002AF1D13A04120C09D00EE004
:10547000984209D05E8A964206D11E680F68BE42E5
:1054800002D14846C3E700E0DB68002BF0D101B150
:1054900009684282016015B96168C16060600020DE
:1054A000B5E70000D05900086800012070B504007D
:1054B00016460D4603D015B1628A1AB107E06FF0A7
:1054C000050070BD0146FFF795FF0028F9D1286857
:1054D00060600949A682207C40F00400207448687E
:1054E000024604E0844201D1002070BDC06800285B
:1054F000F8D1E2604C60F7E76800012038B500F0B1
:1055000027F9094C002860600CD008490722009157
:105510006946FFF7CBFF002804D1054900226068E7
:1055200000F02EF938BD000000000120C0A8000BDB
:105530006D57000870B5114D2A6811A11848FCF785
:10554000ABF91748FAF7B1FE81B203220020FEF74B
:10555000D7FE040010D01248FAF7A7FE82B2104915
:105560002046FFF7EBFC6868214600F00CF9204666
:10557000BDE87040FFF786BA70BD00000000012052
:1055800073656E64696E672075647020636C69650D
:105590006E74206D6573736167652025640000007B
:1055A00080000120704700002DE9F84F0646408931
:1055B0008B46082873D33C4D746829686869FDF7E9
:1055C0005EFA00902088FEF759FA82466088FEF75E
:1055D00055FADFF8D890002103460846D9F8042090
:1055E000144638E0678A9F4233D1009F9FB1CCB107
:1055F000D4F800C0BCF1000F14D0D5F81480B8F175
:10560000FF3F0FD0DBF808700CEA070C08EA070828
:10561000C44507D01DE02CB127681FB1D5F814C0D0
:10562000674516D1277C7F0701D400B92046B4F81E
:1056300014C0D4450DD167681FB1D5F810C06745B7
:1056400007D121B1E768CF60E260C9F8044024B116
:105650000AE02146E468002CC4D1040004D1DBF840
:105660000400696988421AD16FF007013046FFF7DC
:10567000BDFA38B10EA340F2551219A11DA0FCF7D6
:10568000FBF80CE05CB1A5694DB1074B3246CDF893
:1056900000A021461033E069A847BDE8F88F3046E6
:1056A000BDE8F84FFFF7EEB9003201206800012095
:1056B0002E2E2F4D6964646C6577617265732F546B
:1056C000686972645F50617274792F4C7749502F0A
:1056D0007372632F636F72652F7564702E630000A1
:1056E000706275665F686561646572206661696C89
:1056F00065640A00417373657274696F6E202225B8
:105700007322206661696C6564206174206C696E27
:105710006520256420696E2025730A00002810B5D5
:1057200013D00268002A10D000290ED00A68002A7F
:105730000BD0064A526806E013680468A34201D100
:105740000B681360D268002AF6D110BD68000120F2
:10575000002010B5FEF794FC040004D02021FAF7D5
:1057600099FDFF20A072204610BD0000034910469D
:105770000A68521C0A60FFF785B90000000001208A
:10578000C0E90612704718B1838A021D00F003B801
:105790006FF005007047F8B505001E460F46144629
:1057A00010460BD054B1FDF7E9FC50B13346224608
:1057B00039460090284600F007F8F8BD6FF0050064
:1057C000F8BD6FF00300F8BD7CB5069D60B15AB11D
:1057D000046864B1C4F303160E2E08D06E68B44298
:1057E00007D06FF003007CBD6FF005007CBD2C1D61
:1057F00000E00446CDE9005400F002F87CBD000052
:105800002DE9FE4FDDE90C9B05009A4690460E46B9
:1058100005D0B8F1000F02D06A8A22B109E06FF01A
:105820000500BDE8FE8F29460846FFF7E3FD002886
:10583000F7D108213046FFF7D9F980B100220821BD
:105840000120FEF75DFD040006D0308940B13146ED
:105850002046FFF70FF803E04FF0FF30E1E7344652
:105860006089082806D215A340F2DB221FA12BA0D5
:10587000FCF702F8688A6768FEF700F9388050463E
:10588000FEF7FCF878800021F9802089FEF7F6F811
:10589000B88011206A7A5946AB7ACDE90020424699
:1058A0002046CDF80890FDF7D7FAB442054602D05D
:1058B0002046FFF7E7F82846B3E700002E2E2F4DCD
:1058C0006964646C6577617265732F54686972648A
:1058D0005F50617274792F4C7749502F7372632F28
:1058E000636F72652F7564702E6300006368656373
:1058F0006B207468617420666972737420706275BD
:10590000662063616E20686F6C64207374727563C7
:1059100074207564705F6864720000004173736581
:105920007274696F6E2022257322206661696C652E
:1059300064206174206C696E6520256420696E2086
:1059400025730A00000000000000000001020304AB
:1059500006070809FFFFFFFFFFFF0000000000002F
:10596000200004006B3801203C00012020000500CD
:10597000EE3801204000012018000F00913901206D
:105980004400012010000200FC3A012048000120E0
:10599000100010001F3B01204C000120600210008D
:1059A000223C012050000120605900086C59000879
:1059B0007859000884590008905900089C5900083B
:1059C000E803000055370008E8030000FD25000843
:1059D000000000006E657469662D3E68776164643E
:1059E000725F6C656E206D757374206265207468DB
:1059F000652073616D65206173204554485F485789
:105A0000414444525F4C454E20666F722065746875
:105A10006172702100000000385A00080000012067
:105A200080000000E2180008B85A00088000012039
:105A300098760000F2180008000000000000000046
:105A40000000000000000000000000000000000056
:105A50000000000000000000010000001000000035
:105A6000000000000024F40000000000000000001E
:105A70000000000000000000000000000000000026
:105A80000000000000000000000000000000000016
:105A90000000000000000000000000000000000006
:105AA00000C0000000000000000000000000000036
:085AB0000000000000000000EE
:04000005080001C925
:00000001FF
